:020000040000FA
:0400000025EF0FF0E9
:10060000003F065B4F666D7D077F6F777C395E79B3
:1006100071554C445253584142597300400E346E48
:10062000770E356E1B0E366E000E376E010E286E7D
:10063000000E296E000E2A6E000E2B6E000E196E33
:10064000000E1A6E000E1B6E000E1C6E000E336E36
:10065000100E326E000E266E000E256E000E316EEC
:10066000000E276E82EC0BF093EC0DF0E5EC0DF034
:1006700066EC0EF018EC0FF035EC0FF0F6EC08F02D
:1006800089EF06F0000E2C6E000E2D6E000E2E6E01
:10069000000E2F6E3104D8A450EF03F052EF03F098
:1006A00057EF03F03406000E355A365A375A010E0A
:1006B0002C26000E2D222E222F222F502E102D10F0
:1006C00009E1640E2C5CD8A068EF03F06AEF03F038
:1006D0004AEF03F0000E086E070E076EDCEC0BF01D
:1006E000000E106E000E0F6E000E126E000E116ED8
:1006F00049EC0EF0180E126E000E136E000E146E02
:10070000000E156E400E056E7E0E066E050E076E0F
:10071000000E086E34C001F035C002F036C003F0A0
:1007200037C004F034EC0CF001C00EF002C00FF042
:1007300003C010F004C011F086EC0CF00EC01DF0E8
:100740000FC01EF010C01FF011C020F01DC001F03E
:100750001EC002F01FC003F020C004F00A0E056E98
:10076000000E066E000E076E000E086E34EC0CF0E4
:100770000150300F09EC0FF0180E126E000E136EC0
:10078000000E146E000E156E400E056E7E0E066E87
:10079000050E076E000E086E34C001F035C002F081
:1007A00036C003F037C004F034EC0CF001C00EF09A
:1007B00002C00FF003C010F004C011F086EC0CF082
:1007C0000EC021F00FC022F010C023F011C024F0A1
:1007D00021C00EF022C00FF023C010F024C011F091
:1007E0000A0E126E000E136E000E146E000E156EC1
:1007F00086EC0CF00E50300F09EC0FF03A0E09ECBD
:100800000FF0600E056EEA0E066E000E076E000E0B
:10081000086E34C001F035C002F036C003F037C0B6
:1008200004F034EC0CF001C00EF002C00FF003C075
:1008300010F004C011F0060E126E000E136E000EC2
:10084000146E000E156E86EC0CF00E50300F09EC95
:100850000FF0700E056E170E066E000E076E000E7E
:10086000086E34C001F035C002F036C003F037C066
:1008700004F034EC0CF001C00EF002C00FF003C025
:1008800010F004C011F00A0E126E000E136E000E6E
:10089000146E000E156E86EC0CF00E50300F09EC45
:1008A0000FF03A0E09EC0FF0E80E056E030E066E1F
:1008B000000E076E000E086E34C001F035C002F065
:1008C00036C003F037C004F034EC0CF001C00EF079
:1008D00002C00FF003C010F004C011F0060E126E3B
:1008E000000E136E000E146E000E156E86EC0CF0EA
:1008F0000E50300F09EC0FF0640E056E000E066E00
:10090000000E076E000E086E34C001F035C002F014
:1009100036C003F037C004F034EC0CF001C00EF028
:1009200002C00FF003C010F004C011F00A0E126EE6
:10093000000E136E000E146E000E156E86EC0CF099
:100940000E50300F09EC0FF03450351036103710C0
:10095000D8A4ADEF04F0AFEF04F011EF05F0000EF6
:10096000266E010E256E000E316E000E106E000E0A
:100970000F6E000E126E090E116E49EC0EF0200E75
:1009800009EC0FF0200E09EC0FF0200E09EC0FF02F
:10099000200E09EC0FF0200E09EC0FF0200E09ECF0
:1009A0000FF0200E09EC0FF0200E09EC0FF0000EF6
:1009B000106E010E0F6E000E126E000E116E49ECDD
:1009C0000EF0460E09EC0FF0490E09EC0FF04E0E3A
:1009D00009EC0FF0490E09EC0FF0530E09EC0FF083
:1009E000480E09EC0FF0200E09EC0FF0520E09EC46
:1009F0000FF04F0E09EC0FF0550E09EC0FF04E0EF4
:100A000009EC0FF0440E09EC0FF0200E09EC0FF08A
:100A1000210E09EC0FF0210E09EC0FF0210E09EC6C
:100A20000FF025042610D8A418EF05F01AEF05F0F2
:100A300023EF05F0640E04EC0DF0000E086E010EBD
:100A4000076EDCEC0BF061EC0AF0020E276E3EEF55
:100A500003F030EC0FF03250011809E13350021866
:100A6000D8B435EF05F037EF05F06BEF06F030EC5A
:100A70000FF001C032F002C033F032A042EF05F0B7
:100A800044EF05F059EF05F0000E04EC0DF0000EF8
:100A9000266E000E256E3150D8A451EF05F053EFAD
:100AA00005F057EF05F0010E316E59EF05F0000E1D
:100AB000316E32A25EEF05F060EF05F0D3EF05F086
:100AC000000E086E070E076EDCEC0BF0000E04EC57
:100AD0000DF0000E266E000E256E500E346EC30E05
:100AE000356E000E366E000E376E000E316E000E43
:100AF000106E010E0F6E000E126E000E116E49EC9C
:100B00000EF0200E09EC0FF0200E09EC0FF0200E75
:100B100009EC0FF0200E09EC0FF0200E09EC0FF09D
:100B2000200E09EC0FF0200E09EC0FF0200E09EC5E
:100B30000FF0200E09EC0FF0200E09EC0FF0200E44
:100B400009EC0FF0200E09EC0FF0200E09EC0FF06D
:100B5000200E09EC0FF0200E09EC0FF0200E09EC2E
:100B60000FF0000E106E000E0F6E000E126E090ECA
:100B7000116E49EC0EF0200E09EC0FF0200E09EC7E
:100B80000FF0200E09EC0FF0200E09EC0FF0200EF4
:100B900009EC0FF0200E09EC0FF0200E09EC0FF01D
:100BA000200E09EC0FF032A4D8EF05F0DAEF05F0D3
:100BB00047EF06F03450351036103710D8B4E3EF55
:100BC00005F0E5EF05F047EF06F0000E316E000E80
:100BD000106E000E0F6E000E126E090E116E49ECB3
:100BE0000EF04B0E09EC0FF02E0E09EC0FF04F0E2D
:100BF00009EC0FF0210E09EC0FF0210E09EC0FF0BB
:100C0000200E09EC0FF0200E09EC0FF0200E09EC7D
:100C10000FF0000E106E010E0F6E000E126E000E21
:100C2000116E49EC0EF0450E09EC0FF04E0E09EC7A
:100C30000FF0440E09EC0FF0200E09EC0FF04F0EF0
:100C400009EC0FF0460E09EC0FF0200E09EC0FF046
:100C5000460E09EC0FF0490E09EC0FF0470E09ECB7
:100C60000FF0480E09EC0FF0540E09EC0FF0200EB7
:100C700009EC0FF0210E09EC0FF0210E09EC0FF03A
:100C8000210E09EC0FF0000E266E010E256E32A625
:100C90004CEF06F04EEF06F06BEF06F02B502A10EB
:100CA000291007E1050E285CD8B059EF06F05BEF7C
:100CB00006F063EF06F0010E2826000E29222A22F4
:100CC0002B226BEF06F0010E286E000E296E000E2F
:100CD0002A6E000E2B6E030E276E3EEF03F0000E01
:100CE000016E000E67EC0DF0010E016E000E67EC58
:100CF0000DF0020E016E000E67EC0DF0030E016E9A
:100D0000285067EC0DF0000E306E000E276E3EEF9F
:100D100003F02750176E186A1850000AD8B493EFE2
:100D200006F085EF06F01750000AD8B442EF03F042
:100D3000010AD8B423EF05F0030AD8B429EF05F06F
:100D4000010AD8B46FEF06F085EF06F000EF00F06F
:100D500002BEB6EF06F0025007E1080E015CD8B003
:100D6000B4EF06F0B6EF06F0E0EF06F00350041023
:100D7000D8B4BDEF06F0BFEF06F0CFEF06F001C02C
:100D800005F0010E066E052AC8EF06F0D89006366B
:100D9000052EC6EF06F006508012CEEF07F001C018
:100DA00005F0010E066E052AD8EF06F0D89006363B
:100DB000052ED6EF06F00650FF0A8016CEEF07F09C
:100DC00002BEEEEF06F0025007E1100E015CD8B053
:100DD000ECEF06F0EEEF06F01CEF07F0F80E012640
:100DE000FF0E022203500410D8B4F9EF06F0FBEF17
:100DF00006F00BEF07F001C005F0010E066E052AA4
:100E000004EF07F0D8900636052E02EF07F00650E3
:100E10008112CEEF07F001C005F0010E066E052A23
:100E200014EF07F0D8900636052E12EF07F00650A3
:100E3000FF0A8116CEEF07F002BE2AEF07F002503C
:100E400007E1180E015CD8B028EF07F02AEF07F091
:100E500058EF07F0F00E0126FF0E02220350041097
:100E6000D8B435EF07F037EF07F047EF07F001C0D0
:100E700005F0010E066E052A40EF07F0D890063601
:100E8000052E3EEF07F006508212CEEF07F001C0AC
:100E900005F0010E066E052A50EF07F0D8900636D1
:100EA000052E4EEF07F00650FF0A8216CEEF07F030
:100EB00002BE66EF07F0025007E1200E015CD8B0D9
:100EC00064EF07F066EF07F094EF07F0E80E0126F5
:100ED000FF0E022203500410D8B471EF07F073EF35
:100EE00007F083EF07F001C005F0010E066E052A3A
:100EF0007CEF07F0D8900636052E7AEF07F0065003
:100F00008312CEEF07F001C005F0010E066E052A30
:100F10008CEF07F0D8900636052E8AEF07F00650C2
:100F2000FF0A8316CEEF07F002BEA2EF07F00250D1
:100F300007E1280E015CD8B0A0EF07F0A2EF07F0A0
:100F4000CEEF07F0E00E0126FF0E02220350041040
:100F5000D8B4ADEF07F0AFEF07F0BFEF07F001C077
:100F600005F0010E066E052AB8EF07F0D890063698
:100F7000052EB6EF07F006508412CEEF07F001C041
:100F800005F0010E066E052AC8EF07F0D890063668
:100F9000052EC6EF07F00650FF0A8416120002BEA7
:100FA000DDEF07F0025007E1080E015CD8B0DBEF7F
:100FB00007F0DDEF07F007EF08F003500410D8B496
:100FC000E4EF07F0E6EF07F0F6EF07F001C005F0F9
:100FD000010E066E052AEFEF07F0D8900636052EB3
:100FE000EDEF07F006509212F5EF08F001C005F0A2
:100FF000010E066E052AFFEF07F0D8900636052E83
:10100000FDEF07F00650FF0A9216F5EF08F002BE5A
:1010100015EF08F0025007E1100E015CD8B013EF95
:1010200008F015EF08F043EF08F003500410D8B4AF
:101030001CEF08F01EEF08F030EF08F001C005F0DB
:10104000F80E0526010E066E052A29EF08F0D89045
:101050000636052E27EF08F006509312F5EF08F03C
:1010600001C005F0F80E0526010E066E052A3BEFBD
:1010700008F0D8900636052E39EF08F00650FF0A22
:101080009316F5EF08F002BE51EF08F0025007E1A9
:10109000180E015CD8B04FEF08F051EF08F07FEF69
:1010A00008F003500410D8B458EF08F05AEF08F0D5
:1010B0006CEF08F001C005F0F00E0526010E066E7B
:1010C000052A65EF08F0D8900636052E63EF08F084
:1010D00006509412F5EF08F001C005F0F00E052659
:1010E000010E066E052A77EF08F0D8900636052E19
:1010F00075EF08F00650FF0A9416F5EF08F002BEEF
:101100008DEF08F0025007E1200E015CD8B08BEFA4
:1011100008F08DEF08F0BBEF08F003500410D8B4CE
:1011200094EF08F096EF08F0A8EF08F001C005F082
:10113000E80E0526010E066E052AA1EF08F0D890EC
:101140000636052E9FEF08F006509512F5EF08F0D1
:1011500001C005F0E80E0526010E066E052AB3EF64
:1011600008F0D8900636052EB1EF08F00650FF0AB9
:101170009516F5EF08F002BEC9EF08F0025007E13E
:10118000280E015CD8B0C7EF08F0C9EF08F0F5EF02
:1011900008F003500410D8B4D0EF08F0D2EF08F0F4
:1011A000E4EF08F001C005F0E00E0526010E066E22
:1011B000052ADDEF08F0D8900636052EDBEF08F0A3
:1011C00006509612F5EF08F001C005F0E00E052676
:1011D000010E066E052AEFEF08F0D8900636052EB0
:1011E000EDEF08F00650FF0A96161200000E026E90
:1011F000180E016E000E046E000E036EA8EC06F0D1
:10120000000E026E190E016E000E046E000E036ECB
:10121000A8EC06F0000E026E1A0E016E000E046EAF
:10122000000E036EA8EC06F0000E026E1B0E016E9F
:10123000000E046E000E036EA8EC06F0000E086EA1
:10124000000E076EBEEC0DF08EEF09F0010E41248A
:10125000F66EF76A060EF7220800F550076E086A68
:10126000BEEC0DF0000E026E180E016E000E046E44
:10127000010E036EA8EC06F0010E426EABEF09F012
:10128000010E4024F66EF76A060EF7220800F550AC
:10129000076E086ABEEC0DF0000E026E190E016EAC
:1012A000000E046E010E036EA8EC06F0020E426EF4
:1012B000ABEF09F0010E3F24F66EF76A060EF72237
:1012C0000800F550076E086ABEEC0DF0000E026EC5
:1012D0001A0E016E000E046E010E036EA8EC06F0ED
:1012E000030E426EABEF09F0010E3E24F66EF76A74
:1012F000060EF7220800F550076E086ABEEC0DF0E6
:10130000000E026E1B0E016E000E046E010E036EC7
:10131000A8EC06F0000E426EABEF09F042500A6EE8
:101320000B6A0B50000AD8B498EF09F08AEF09F065
:101330000A50000AD8B426EF09F0010AD8B440EFE9
:1013400009F0030AD8B45AEF09F0010AD8B474EFCF
:1013500009F08AEF09F0120002BEBAEF09F002505C
:1013600007E1080E015CD8B0B8EF09F0BAEF09F058
:10137000CEEF09F001C003F0010E046E032AC3EFA3
:1013800009F0D8900436032EC1EF09F00450801400
:10139000056E0550016E026A60EF0AF002BEDCEFD6
:1013A00009F0025007E1100E015CD8B0DAEF09F045
:1013B000DCEF09F0F2EF09F001C003F0F80E0326AC
:1013C000010E046E032AE7EF09F0D8900436032ECD
:1013D000E5EF09F004508114056E0550016E026AB4
:1013E00060EF0AF002BE00EF0AF0025007E1180EAB
:1013F000015CD8B0FEEF09F000EF0AF016EF0AF03A
:1014000001C003F0F00E0326010E046E032A0BEF59
:101410000AF0D8900436032E09EF0AF00450821423
:10142000056E0550016E026A60EF0AF002BE24EFFD
:101430000AF0025007E1200E015CD8B022EF0AF05A
:1014400024EF0AF03AEF0AF001C003F0E80E032699
:10145000010E046E032A2FEF0AF0D8900436032EF3
:101460002DEF0AF004508314056E0550016E026AD8
:1014700060EF0AF002BE48EF0AF0025007E1280EC2
:10148000015CD8B046EF0AF048EF0AF05EEF0AF0D0
:1014900001C003F0E00E0326010E046E032A53EF91
:1014A0000AF0D8900436032E51EF0AF00450841449
:1014B000056E0550016E026A60EF0AF0016802686D
:1014C0001200000E3B6E000E3A6E000E0E6E000E05
:1014D0000D6E0EBE75EF0AF00E5009E1050E0D5CA3
:1014E000D8A075EF0AF077EF0AF079EF0AF0DAEF9B
:1014F0000AF00DC00AF0030E0A26010E0B6E000E54
:101500000C6E0A2A87EF0AF0D8900B360C360A2E9A
:1015100084EF0AF00BC007F00CC008F0BEEC0DF031
:10152000000E026E0A0E016EACEC09F001500210C2
:10153000D8B49DEF0AF09FEF0AF0B2EF0AF00DC0A9
:101540000AF0010E0B6E000E0C6E0A2AABEF0AF0C9
:10155000D8900B360C360A2EA8EF0AF00B503A1230
:101560000C503B12000E026E090E016EACEC09F03D
:1015700001500210D8B4BFEF0AF0C1EF0AF0D6EF65
:101580000AF00DC00AF0050E0A26010E0B6E000EC1
:101590000C6E0A2ACFEF0AF0D8900B360C360A2EC2
:1015A000CCEF0AF00B503A120C503B120D4A0E2AA7
:1015B00069EF0AF03A50381807E13B503918D8A4BF
:1015C000E4EF0AF0E6EF0AF0E9EF0AF04306EFEF86
:1015D0000AF0010E436E3AC038F03BC039F0435078
:1015E000D8A4F5EF0AF0F7EF0AF0FBEF0AF038C0E5
:1015F0003CF039C03DF01200000E0A6E08BE05EF47
:101600000BF003EF0BF00FEF0BF0081E071E061E8A
:10161000056C000E062207220822010E0A6E04BE87
:1016200016EF0BF014EF0BF020EF0BF0041E031E6F
:10163000021E016C000E022203220422010E0A1A6D
:10164000000E0B6E000E0C6E000E0D6E000E0E6E78
:101650000550061007100810D8B431EF0BF033EF27
:101660000BF069EF0BF0010E096E3DEF0BF0D89017
:101670000536063607360836092A08AE42EF0BF063
:1016800044EF0BF037EF0BF0D8900B360C360D36DD
:101690000E360550015C065002580750035808509A
:1016A0000458D8A056EF0BF058EF0BF061EF0BF099
:1016B0000550015E0650025A0750035A0850045A5A
:1016C0000B80D8900832073206320532092E44EFDB
:1016D0000BF00A50D8B46FEF0BF071EF0BF079EF0D
:1016E0000BF00E1E0D1E0C1E0B6C000E0C220D229C
:1016F0000E220BC001F00CC002F00DC003F00EC0B2
:1017000004F01200000E026E1C0E016E000E046E3C
:10171000000E036ECFEC07F0000E026E1D0E016E80
:10172000000E046E000E036ECFEC07F02AEC0EF0F4
:10173000000E026E0F0E016E7FEC0EF0000E0B6EAF
:10174000000E0A6E030EE7EC0EF0000E026E050EA0
:10175000016E7FEC0EF0000E0B6E000E0A6E030E93
:10176000E7EC0EF0000E026EA00E016E39EC0FF0E9
:10177000000E0B6E000E0A6E030EE7EC0EF0000E6C
:10178000026EA00E016E39EC0FF0000E0B6E000E13
:101790000A6E020EE7EC0EF0000E026E0A0E016EEB
:1017A0007FEC0EF0280EFAEC0EF00C0EFAEC0EF0B8
:1017B000010EFAEC0EF0120007A0E1EF0BF0E3EFE0
:1017C0000BF0EFEF0BF0000E026E180E016E000E24
:1017D000046E010E036EA8EC06F0F9EF0BF0000E9C
:1017E000026E180E016E000E046E000E036EA8EC61
:1017F00006F007A2FEEF0BF000EF0CF00CEF0CF080
:10180000000E026E190E016E000E046E010E036EC4
:10181000A8EC06F016EF0CF0000E026E190E016E29
:10182000000E046E000E036EA8EC06F007A41BEF7A
:101830000CF01DEF0CF029EF0CF0000E026E1A0EEA
:10184000016E000E046E010E036EA8EC06F033EF7D
:101850000CF0000E026E1A0E016E000E046E000EE9
:10186000036EA8EC06F01200000E096E000E0A6E60
:10187000000E0B6E000E0C6E0550061007100810BF
:10188000D8B445EF0CF047EF0CF07DEF0CF0010EF3
:101890000D6E51EF0CF0D890053606360736083637
:1018A0000D2A08AE56EF0CF058EF0CF04BEF0CF091
:1018B000D89009360A360B360C360550015C0650B6
:1018C00002580750035808500458D8A06AEF0CF08B
:1018D0006CEF0CF075EF0CF00550015E0650025AEB
:1018E0000750035A0850045A0980D890083207322A
:1018F000063205320D2E58EF0CF009C001F00AC077
:1019000002F00BC003F00CC004F0120012501310D0
:1019100014101510D8B48FEF0CF091EF0CF0C1EF4C
:101920000CF0010E166E9BEF0CF0D89012361336A9
:1019300014361536162A15AEA0EF0CF0A2EF0CF0F7
:1019400095EF0CF012500E5C13500F5814501058B5
:1019500015501158D8A0AFEF0CF0B1EF0CF0B9EF63
:101960000CF012500E5E13500F5A1450105A1550AE
:10197000115AD8901532143213321232162EA2EFA9
:101980000CF00EC00EF00FC00FF010C010F011C020
:1019900011F01200000E066E000E056E03500410CA
:1019A000D8B4D5EF0CF0D7EF0CF0FFEF0CF0010E30
:1019B000076EDFEF0CF0D89003360436072A04AE2A
:1019C000E4EF0CF0E6EF0CF0DBEF0CF0D89005360E
:1019D00006360350015C04500258D8A0F2EF0CF018
:1019E000F4EF0CF0F9EF0CF00350015E0450025AD2
:1019F0000580D89004320332072EE6EF0CF005C0C4
:101A000001F006C002F012000A6E010ECB24016E36
:101A1000026A000E02220AC003F0046AC1EC0EF052
:101A200001C00BF002C00CF00BC001F00CC002F0C2
:101A3000000E046E190E036ECAEC0CF001C00BF020
:101A400002C00CF0FF0E0B16030E0C160BC008F0B4
:101A50000CC009F0D89009320832D8900932083207
:101A60000850BB6E0BC008F0030E08160838F00BC8
:101A7000BA1212000D6E0DC00CF00C3A0F0E0C16BF
:101A80000C50076E086ABEEC0DF0000E026E1D0EC3
:101A9000016E0AC003F00BC004F0A8EC06F009ECDC
:101AA0000EF00DC00CF00F0E0C160C50076E086AED
:101AB000BEEC0DF0000E026E1D0E016E0AC003F0AA
:101AC0000BC004F0A8EC06F009EC0EF01200026E58
:101AD0000150D8A46EEF0DF070EF0DF072EF0DF025
:101AE00002C041F00104D8A478EF0DF07AEF0DF0B8
:101AF0007CEF0DF002C040F0020E0118D8A483EF75
:101B00000DF085EF0DF087EF0DF002C03FF0030EF2
:101B10000118D8A48EEF0DF090EF0DF092EF0DF0BC
:101B200002C03EF01200000E026E180E016E000E92
:101B3000046E000E036ECFEC07F0000E026E190E5D
:101B4000016E000E046E000E036ECFEC07F0000E67
:101B5000026E1A0E016E000E046E000E036ECFECC4
:101B600007F0000E026E1B0E016E000E046E000EDA
:101B7000036ECFEC07F02AEC0EF01200000E026E9E
:101B8000080E016E000E046E000E036EA8EC06F047
:101B9000000E096E000E026E1E0E016E800E0714FE
:101BA000036E046AA8EC06F0ACEC0EF0D890073691
:101BB0000836092A070E0964E0EF0DF0E2EF0DF098
:101BC000CAEF0DF097EC0EF01200000E026E000E40
:101BD000016E000E046E010E036ECFEC07F0000ED6
:101BE000026E010E016E000E046E010E036ECFEC4C
:101BF00007F0000E026E020E016E000E046E010E62
:101C0000036ECFEC07F0C2800C0EC16EAA0EC06E40
:101C10001200000E026E1C0E016E000E046E010E0C
:101C2000036EA8EC06F0000E026E050E016E39EC94
:101C30000FF0000E026E1C0E016E000E046E000E00
:101C4000036EA8EC06F0000E026E050E016E39EC74
:101C50000FF01200000E026E1F0E016E000E046ED9
:101C6000000E036ECFEC07F0000E026E080E016E40
:101C7000000E046E000E036ECFEC07F0000E026E35
:101C80001E0E016E000E046E000E036ECFEC07F008
:101C900012000F501010D8A450EF0EF052EF0EF0BB
:101CA00057EF0EF011500F0B800FFAEC0EF00F04EF
:101CB0001010D8A45EEF0EF060EF0EF065EF0EF09E
:101CC00011500F0BC00FFAEC0EF012002AEC0EF0C0
:101CD000000E026E0A0E016E000E046E010E036EFF
:101CE000CFEC07F0000E026E090E016E000E046EBE
:101CF000010E036ECFEC07F00C0EC16E1200000E49
:101D0000056E000E046E87EF0EF0044A052A01509E
:101D1000045C0550800A036E0250800A0358D8A064
:101D200094EF0EF096EF0EF085EF0EF01200000E1D
:101D3000026E1F0E016E000E046E010E036EA8EC03
:101D400006F0000E026E1F0E016E000E046E000EF5
:101D5000036EA8EC06F01200000E026E080E016E73
:101D6000000E046E010E036EA8EC06F0000E026E6B
:101D7000080E016E000E046E000E036EA8EC06F055
:101D8000120001500302F3CF05F0F4CF06F001502A
:101D90000402F350062602500302F350062605C043
:101DA00001F006C002F01200480E016EE80E026E4D
:101DB000010E036E000E046E0FC005F010C006F099
:101DC000076A086AFCEC0AF00104CB6E12000C6E84
:101DD0000CC007F0086ABEEC0DF0000E026E1D0E7E
:101DE000016E0AC003F00BC004F0A8EC06F009EC89
:101DF0000EF012000E6E000E0B6E000E0A6E0E50EC
:101E00003AEC0DF0000E026E020E016E7FEC0EF049
:101E100012000E6E000E0B6E010E0A6E0E503AECA2
:101E20000DF0000E026E500E016E39EC0FF0120034
:101E30009492030ECA12CA840C0EBA6E000E106E73
:101E4000640E0F6ED4EC0EF0120000EE38F00D0EA2
:101E5000EE6AE806FDE1000EF86E00010EEF03F0F9
:101E60003CC001F03DC002F01200080ED56ED58EC8
:041E7000120012004A
:020000040020DA
:08000000FFFFFFFFFFFFFFFF00
:020000040030CA
:0E000000FF027100FF8380FF0FC00FE00F4072
:00000001FF
